:0300000002013CBE
:0C013C00787FE4F6D8FD75815D02018338
:1003A700E4F50BF50AF509F508F50C1204481204F3
:1003B700741204A8D28E1201C8EC33E440047F0102
:1003C7008001FFFEFDFC8F108E0F8D0E8C0DEC4D06
:0F03D7004E4F60E2E4F51575160812031080D73B
:1003E6000842FFFFFFFFFFFFFFFF082180402010AC
:1003F600080402011829C0F9A4B0999282F88090E5
:0E0406008883C6A1868E000000000000000062
:10044800753940753AFF753B76753C38753D37759B
:090458003E3E753F7375405C22C5
:1002A700EFC39400400AEFD3940950047429801EC9
:1002B700EFC39430400AEFD39439500474F9800E99
:1002C700EFC39441400FEFD39446500974F22FF8CF
:1002D700E6F5198031EF24B4601524FC602024E290
:1002E700601224F96013242D7019853B1980178536
:1002F7003C198012853D19800D853E198008853F80
:08030700198003853919AF19B3
:01030F0022CB
:10049800853A8074212DF8E6F5907580FF8F8022CB
:080310008F148E138D128C1165
:10031800E5152516F518851517E517C39518503AEC
:10032800E47B0AFAF9F8AF14AE13AD12AC1112005F
:1003380099AF031202A774422517F8A607AF14AEA7
:1003480013AD12AC11E47B0AFAF9F81200998F1474
:0A0358008E138D128C11051780BF63
:010362002278
:10042300853A8074212541F8E6F59074422541F818
:10043300E6F5800541E541C3940840047F0080024E
:05044300AF418F4122D2
:0E041400044E00000000045200000000C10071
:03000B0002023BB3
:10023B00C0E0C0F0C083C082C0D075D000C000C089
:10024B0001C002C003C004C005C006C007758A33D5
:10025B00758CFEE5552401F555E43554F554E4351C
:10026B0053F553E43552F552E55124F4F551E5506D
:10027B003401F550E4354FF54FE4354EF54E12048D
:10028B0023D007D006D005D004D003D002D001D0A4
:0C029B0000D0D0D082D083D0F0D0E03270
:10047400438901758A33758CFEC28DD2AFD2A9D25D
:020484008C22C8
:0B04A800438960E4F58BF58DC28F22C4
:0904B300AF55AE54AD53AC52221A
:0904BC00AF51AE50AD4FAC4E2221
:10048600E47BE87A03F9F8AF51AE50AD4FAC4E02BB
:020496000099CB
:100461007B407A42790F7800AF51AE50AD4FAC4E20
:03047100020099ED
:1001C8001204BCC3EF9559FFEE9558FEED9557FD07
:1001D800EC9556FCE47B64FAF9F8D312012B504CE9
:1001E800AF8DEFFEAD8B7C00E42DFFEC3EFEE48F7F
:1001F8005D8E5CF55BF55A1204868F598E588D57C3
:100208008C56E4F58DF58BC28F7B18FAF9F8AF5D43
:10021800AE5CAD5BAC5A120363E47B64FAF9F81286
:100228000363E47B607AEAF9F802000E74FFFFFECC
:03023800FDFC22A8
:100148000203A7E493A3F8E493A34003F68001F223
:1001580008DFF48029E493A3F85407240CC8C333B8
:10016800C4540F4420C8834004F456800146F6DF87
:10017800E4800B01020408102040809003E6E47E2E
:10018800019360BCA3FF543F30E509541FFEE4937C
:10019800A360010ECF54C025E060A840B8E493A343
:1001A800FAE493A3F8E493A3C8C582C8CAC583CA6E
:1001B800F0A3C8C582C8CAC583CADFE9DEE780BE26
:0104220000D9
:10000E00E88FF0A4CC8BF0A42CFCE98EF0A42CFC91
:10001E008AF0EDA42CFCEA8EF0A4CDA8F08BF0A40F
:10002E002DCC3825F0FDE98FF0A42CCD35F0FCEB6E
:10003E008EF0A4FEA9F0EB8FF0A4CFC5F02ECD3933
:0F004E00FEE43CFCEAA42DCE35F0FDE43CFC22A0
:10005D0075F008758200EF2FFFEE33FECD33CDCC5A
:10006D0033CCC58233C5829BED9AEC99E5829840DD
:10007D000CF582EE9BFEED9AFDEC99FC0FD5F0D6BA
:10008D00E4CEFBE4CDFAE4CCF9A88222B800C1B9E4
:10009D000059BA002DEC8BF084CFCECDFCE5F0CB22
:1000AD00F97818EF2FFFEE33FEED33FDEC33FCEB5B
:1000BD0033FB10D703994004EB99FB0FD8E5E4F916
:1000CD00FA227818EF2FFFEE33FEED33FDEC33FC03
:1000DD00C933C910D7059BE99A4007EC9BFCE99AF7
:1000ED00F90FD8E0E4C9FAE4CCFB2275F010EF2F3C
:1000FD00FFEE33FEED33FDCC33CCC833C810D7073C
:10010D009BEC9AE899400AED9BFDEC9AFCE899F876
:0E011D000FD5F0DAE4CDFBE4CCFAE4C8F92209
:10036300C2D5E830E70FB2D5E4C39BFBE49AFAE4C5
:1003730099F9E498F8EC30E717B2D5120399120013
:1003830099E4C39BFBE49AFAE499F9E498F88003AF
:1003930012009930D50DE4C39FFFE49EFEE49DFD5A
:0403A300E49CFC22B8
:10012B00EB9FF5F0EA9E42F0E99D42F0E89C45F02A
:01013B0022A1
:00000001FF
