:030000000201E911
:0C01E900787FE4F6D8FD75814F020230EB
:10027500E4F534F533F532F5311204C91204A6124A
:1002850004FBC004C005C006C007AF34AE33AD32B1
:10029500AC31E4120087A804A905AA06AB07D0076C
:1002A500D006D005D00412000E501FAF34AE33ADCA
:1002B50032AC31E4F539753A0212035A1204FB12D5
:1002C50000C58F348E338D328C31AF34AE33AD32C1
:1002D500AC31753902753A0212035A1204FB120049
:0C02E500C5753904753A0212035A809363
:100443000128000829000000000000000008087FC0
:10045300BFDFEFF7FBFDFE18103F065B4F666D7DB8
:10046300077F6F777C395E79710000000000000020
:010473000088
:1004C900752040E4F5217522767523387524377532
:0904D900253E75267375275C228F
:1002F100EFC39400400AEFD3940950047410801E98
:10030100EFC39430400AEFD39439500474E0800E67
:10031100EFC39441400FEFD39446500974D92FF89D
:10032100E6F53D8031EF24B4601524FC602024E221
:10033100601224F96013242D701985223D801785E0
:10034100233D801285243D800D85253D800885262D
:080351003D800385203DAF3D16
:010359002281
:1004E200E4F580D2A6C2A674082DF8E6F580D2A75C
:0904F200C2A78F80D2A6C2A62287
:08035A008F388E378D368C358B
:10036200E539253AF53C85393BE53BC3953C50469A
:10037200E47B0AFAF9F8AF38AE37AD36AC35120184
:1003820038AF031202F17429253BF8A60774292518
:100392003BF8E6FFAD3B1204E2AF38AE37AD36AC08
:1003A20035E47B0AFAF9F81201388F388E378D3628
:0603B2008C35053B80B311
:0103B8002222
:0203B9008D4E67
:1003BB00E54E2FF54F120528C007AF4FAB07E4FAF8
:1003CB00F9F8D007120138AF4EE4FCFDFEC3120161
:1003DB00D85019D2A6852180C2A60528E528C3943A
:1003EB000840047F008002AF288F2822D2A7740810
:1003FB002528F8E6F580C2A7D2A674292528F8E6A9
:04040B00F580C2A610
:01040F0022CA
:10047500E4F580D2A6C2A674082528F8E6F580D250
:10048500A7C2A774292528F8E6F580D2A6C2A60535
:1004950028E528C3940840047F008002AF288F28F0
:0104A5002234
:03000B00020410DC
:10041000C0E0C0D0E5492401F549E43548F548E499
:100420003547F547E43546F546E5452466F545E4A8
:100430003544F544E43543F543E43542F542D0D044
:03044000D0E032D7
:1004A600E4F545F544F543F542F549F548F547F5D4
:1004B60046438902758AA2758CA2C28DD2AFD2A993
:0304C600D28C22B3
:09052800AF49AE48AD47AC4622D4
:09053100AF45AE44AD43AC4222DB
:10051200E47BE87A03F9F8AF45AE44AD43AC42124E
:060522000138E40200872D
:1004FB007B407A42790F7800AF45AE44AD43AC42B6
:07050B00120138E402008731
:10000E0074F8CC6480CCC86480C8F58204604FC399
:10001E00EB9FF5F0EA9E42F0E99D42F0E89C45F038
:10002E00603C501DE5825FFFE582D313CB5BCBF4C2
:10003E002B5582FB50280ABA002409B900200880EB
:10004E001DE5825BFBE582D313CF5FCFF4C3132F85
:10005E005582FF50090EBE00050DBD00010CC3EB0D
:10006E009FF5F0EA9E42F0E99D42F0E89C45F06073
:09007E0007CC4820E701B3EC2295
:1000870075F020800E75F010800575F0087D007EF4
:10009700007F003392D530D5031201CAEC334010EC
:1000A700EF33FFEE33FEED33FDEC33FCD5F0ED22FD
:0E00B700E5F0247EA2D513CC92E7CDCEFF2239
:1000C500EDD2E7CD33EC3392D524814006E4FFFE33
:1000D500FDFC22FCE4CFCECDCC24E0501174FF8092
:1000E500EDC3CC13CCCD13CDCE13CECF13CF04702F
:0700F500F030D5DE0201CA64
:1001F500020275E493A3F8E493A34003F68001F2A9
:1002050008DFF48029E493A3F85407240CC8C3330A
:10021500C4540F4420C8834004F456800146F6DFD9
:10022500E4800B0102040810204080900443E47E22
:10023500019360BCA3FF543F30E509541FFEE493CE
:10024500A360010ECF54C025E060A840B8E493A395
:10025500FAE493A3F8E493A3C8C582C8CAC583CAC0
:10026500F0A3C8C582C8CAC583CADFE9DEE780BE78
:010474000087
:1000FC0075F008758200EF2FFFEE33FECD33CDCCBB
:10010C0033CCC58233C5829BED9AEC99E58298403D
:10011C000CF582EE9BFEED9AFDEC99FC0FD5F0D61A
:10012C00E4CEFBE4CDFAE4CCF9A88222B800C1B944
:10013C000059BA002DEC8BF084CFCECDFCE5F0CB82
:10014C00F97818EF2FFFEE33FEED33FDEC33FCEBBB
:10015C0033FB10D703994004EB99FB0FD8E5E4F976
:10016C00FA227818EF2FFFEE33FEED33FDEC33FC63
:10017C00C933C910D7059BE99A4007EC9BFCE99A57
:10018C00F90FD8E0E4C9FAE4CCFB2275F010EF2F9C
:10019C00FFEE33FEED33FDCC33CCC833C810D7079C
:1001AC009BEC9AE899400AED9BFDEC9AFCE899F8D7
:0E01BC000FD5F0DAE4CDFBE4CCFAE4C8F9226A
:0E01CA00C3E49FFFE49EFEE49DFDE49CFC2246
:1001D800EB9FF5F0EA9E42F0E99D42F0E89C45F07D
:0101E80022F4
:00000001FF
