:030000000207F6FE
:0C07F600787FE4F6D8FD7581A902083D6B
:100636002000062001030206CA300009300106C266
:1006460000C201804B300022C3E51D941DE51C64E9
:1006560080948140067E017F2C8009E51D240FFFD2
:10066600E4351CFE8E1C8F1DC200300123D3E51D10
:1006760094E3E51C6480947E50067EFE7FD4800A57
:10068600E51D24F1FFE51C34FFFE8E1C8F1DC20103
:10069600AF1DAE1C120B9B8E1A8F1BAC1AAD1BE442
:1006A6001203327B8F7AC279F5783C12010E787E7E
:1006B6001204F2C3E51C6480948050047FFF80021C
:0906C6007F018F19D2A9D2AB22E9
:10088200120B8F9000107480F0751C00751D967508
:100892001A00751B96751901AC1AAD1BE4120332CE
:1008A2007B8F7AC279F5783C12010E787E1204F2BF
:1008B2007F007E007D407C40120BB9750F13750ED0
:1008C200D4750DF0750C3D7513F97512BE7511D8FE
:1008D20075103D7F3C7EBF7D587C3E120B01120B92
:1008E20020120BE8120B70120B80D2BBD2B9D2A825
:0508F200D2AAD2AF22E2
:10076500120882120636120B5EC3EF9518FFEE953E
:1007750017FEED9516FDEC9515FCE47B4FFAF9F89F
:10078500D31204C850DD120B5E8F188E178D168C90
:1007950015120AA3120BC28F0F8E0E8D0D8C0CAC89
:1007A5001AAD1BE4120332120517AE1CAF1DEE3352
:1007B50095E0FDFC750C04750D041206CF120BC2F5
:1007C500C004C005C006C007AC19EC120337D0033E
:1007D500D002D001D00012010EE4FBFAF9783F12E5
:1007E500001D12036BE4F50C750D041206CF02070C
:0107F500689B
:100A66000821010204081020408018293F065B4F28
:100A7600666D7D077F6F777C395E797100000000B7
:040A8600000000006C
:100B2000753940E4F53A753B76753C38753D377557
:090B30003E3E753F7375405C22E6
:10096200EFC39400400AEFD3940950047429801E07
:10097200EFC39430400AEFD39439500474F9800ED7
:10098200EFC39441400FEFD39446500974F22FF80D
:10099200E6F514802CEF24B4601524FC601B24E2DD
:1009A200601C24F9600E242D7014853B148012857E
:1009B2003C14800D853E148008853F148003853DDC
:0309C20014AF145B
:0109C500220F
:100B4C00900000E53AF0A3EDF0900000E53AF0EFEC
:020B5C00F02285
:0806CF008F0B8E0A8D098C08C7
:1006D700E50C250DF50F120B9BEE3395E08F138E6E
:1006E70012F511F510850C0EE50F14FFE50EC39FEB
:1006F700503AE47B0AFAF9F8AF13AE12AD11AC1019
:10070700120A22AF031209627442250EF8A607AF38
:1007170013AE12AD11AC10E47B0AFAF9F8120A22F3
:100727008F138E128D118C10050E80BCAC08EC3324
:100737005004AF398020AF13AE12AD11AC10EC4DA1
:100747004E4F6010E47B0AFAF9F8120A22AF03123F
:0D07570009628002AF3A7442250EF8A60731
:010764002272
:100ADD00900000E53AF0A3E541F02442F8E69000DD
:100AED0000F00541E541C3940840047F008002AF4A
:040AFD00418F4122C2
:0E0A8A00046200000000046600000000C102CB
:03000B000208F7F1
:1008F700C0E0C0F0C083C082C0D075D000C000C0C7
:1009070001C002C003C004C005C006C007758A68DD
:10091700758C68E5692401F569E43568F568E4359F
:1009270067F567E43566F566E56524C8F565E4357A
:1009370064F564E43563F563E43562F562120ADD54
:10094700D007D006D005D004D003D002D001D00004
:0B095700D0D0D082D083D0F0D0E032AE
:100B7000438902758A68758C68C28DD2A9D28C228D
:0F0B8000438950E4F58BF58DC28FD2B5D28E220A
:090BA700AF69AE68AD67AC6622CF
:090BB000AF65AE64AD63AC6222D6
:100B5E00E47BE87A03F9F8AF65AE64AD63AC62028C
:020B6E00042859
:100B39007B407A42790F7800AF65AE64AD63AC62F1
:030B49000204287B
:090BB9008F518E508D4F8C4E229D
:100AA300AF8DEFFEAD8B7C00E42DFFEC3EFEE48FBB
:100AB3004D8E4CF54BF54AAD4BAC4AEC12032DABC6
:100AC30051AA50A94FA84E12010E8F558E548D5323
:090AD3008C52E4F58DF58BC28F05
:010ADC0022F7
:090BC200AF55AE54AD53AC522204
:060A9800047A3F8000001B
:10051700E51B451A7003020619AB0FAA0EA90DA811
:100527000C120019786E1204F278961204E5C000D6
:10053700786E1204D9D000120019787A1204E512E5
:10054700010E789E1204F2786E1204D9787612049E
:10055700E512010E788E1204F2E4FFFEFD7C40786E
:10056700961204E512010EC004C005C006C0077844
:100577006E1204D9D003D002D001D000120019782E
:100587009A1204E512001D78721204E512010E7822
:10059700861204F2788E1204D9789E1204E51200AE
:1005A7001D78861204E512001D78A61204F278A2BF
:1005B7001204D978A61204E512001D78A21204F2DB
:1005C700E4FFFEFDFC78A21204E51202B4500B789A
:1005D700A21204FE00000000801CE4FFFE7DFE7CEA
:1005E7004278A21204E51202B4600B400978A21205
:1005F70004FE42FE0000E4FFFEFD7C3F78A21204E9
:10060700E512001D12036BEF8519F0A42480F51E77
:100617008003751E80900010E51EF078961204D9AD
:0F062700789A1204F2786E1204D978960204F2CF
:0500060078A60204D9F8
:05000E0078A20204D9F4
:100B0100787A1204F2AF0FAE0EAD0DAC0C787612FE
:0F0B110004F2AF13AE12AD11AC1078720204F201
:050BD900787A0204F22D
:050BDE00788A0204F218
:050BE30078820204F21B
:1009C600787A1204F2AF5DAE5CAD5BAC5A788A12EF
:1009D60004F2AF61AE60AD5FAC5E78821204F2E401
:1009E600FFFEFDFC788A1204E51202B47006FFFED3
:1009F600FDFC8011788A1204E5C000787A1204D9C9
:100A0600D00012021778761204F278821204D9788E
:0C0A16007A1204E512010E78720204F25C
:040A9E00C100C101D1
:03000300020BCB22
:070BCB00C2A9C2ABD2003247
:03001300020BD20B
:070BD200C2A9C2ABD201323F
:050BE800D288D28A2230
:0C0B8F009000037481F090001314F02219
:100016000203D7E86480F8E933E83360110460F03E
:10002600ED33EC337009E8FCE9FDEAFEEBFF220450
:1000360060DED3EB9FEA9EE99DE8C2E78CF0C2F74B
:1000460095F0400CE8CCF8E9CDF9EACEFAEBCFFB17
:100056001203A285D0F05804700320D5B3E80470CB
:10006600075002B2D50203E192D5EC0460F7E4CC66
:10007600C0E0C398F8603B94186008400DD0E0FBE0
:100086000203B9E4FBFAC9FC8028E830E406E4C9B7
:10009600FBE4CAFCE830E305E4C9CACBFCE8540734
:1000A6006010F8C3E913F9EA13FAEB13FBEC13FC3F
:1000B600D8F130F52FC3E49CFCEF9BFFEE9AFEEDE2
:1000C60099FDD0E0FBEF4E4D4C701222DB0302038C
:1000D600DEEC2CFCEF33FFEE33FEED33FDED30E7C7
:1000E600EB0203B9EF2BFFEE3AFEED39FDD0E0FB54
:1000F60050130BBB00030203E1ED13FDEE13FEEFFD
:0801060013FFEC13FC0203B926
:10010E00EC4D6011E8497017ED33EC3304600DE4EB
:10011E00FCFFFEFD22E933E8330470F80203D71228
:10012E0003A258046009E4CC248150062850090229
:10013E0003E12840030203DEC0E0EB4A7044B980BD
:10014E0006D0E0FB0203CDEF4E701CBD8008EBFF26
:10015E00EAFEE9FD80EBE98DF0A4FEE5F00201F781
:10016E00E9CDF9EAFEEBFFEF89F0A4FCE5F0CE89CC
:10017E00F0A42EFFE435F0CD89F0A42DFEE435F089
:10018E008067EF4E7005BD80D780C3EF8BF0A4ACB7
:10019E00F0EE8BF0A42CFCE435F0F8EF8AF0A42CF2
:1001AE00E5F038FCE433CB8DF0A42CFCE5F03BF805
:1001BE00EE8AF0A42CFCE5F038F8E433CF89F0A4F5
:1001CE002CFCE5F038CF3400CE89F0A42FFFE5F0FB
:1001DE003EFEE433C98DF0A42EFEE5F039CD8AF053
:1001EE00A42FFFE5F03EFEE43DFD33D0E0FB5007CB
:1001FE000BBB000F0203E1EC2CFCEF33FFEE33FEE2
:06020E00ED33FD0203B90F
:100214000203E1EC5D046005E8590470030203D7AE
:100224001203A2580460F6EC4860F2EC7004FDFE80
:10023400FF22C860DB2481C85009C39860025006BD
:100244000203DE9850CAF582E9294B4A7005AB8255
:100254000203CD75F0007C1A7880C3EF9BEE9AED13
:1002640099400DC3EF9BFFEE9AFEED99FDE842F035
:10027400DC23ACF0D0E0FFD0E0FED0E0FDAB822088
:10028400E7101BEB60BAEC2CFCEF33FFEE33FEED12
:1002940033FD0203B9E803F830E705C0F075F00058
:1002A400EF2FFFEE33FEED33FD40B830E7C280AAF6
:1002B40074F8CC6480CCC86480C8F58204604FC3F1
:1002C400EB9FF5F0EA9E42F0E99D42F0E89C45F090
:1002D400603C501DE5825FFFE582D313CB5BCBF41A
:1002E4002B5582FB50280ABA002409B90020088043
:1002F4001DE5825BFBE582D313CF5FCFF4C3132FDD
:100304005582FF50090EBE00050DBD00010CC3EB64
:100314009FF5F0EA9E42F0E99D42F0E89C45F060CA
:0903240007CC4820E701B3EC22EC
:10032D0075F020800E75F010800575F0087D007E4B
:10033D00007F003392D530D5031204BAEC33401050
:10034D00EF33FFEE33FEED33FDEC33FCD5F0ED2254
:0E035D00E5F0247EA2D513CC92E7CDCEFF2290
:10036B00EDD2E7CD33EC3392D524814006E4FFFE8A
:10037B00FDFC22FCE4CFCECDCC24E0501174FF80E9
:10038B00EDC3CC13CCCD13CDCE13CECF13CF047086
:07039B00F030D5DE0204BAC8
:1003A200E9D2E7C933E833F892D5EDD2E7CD33ECA1
:0703B20033FC5002B2D5221A
:1003B900EC30E7100FBF000C0EBE00080DBD0004A5
:1003C9000BEB6014A2D5EB13FCED92E7FD2274FF51
:1003D900FCFDFEFF22E480F8A2D574FF13FC7D80AA
:0303E900E480EFBE
:10080200020765E493A3F8E493A34003F68001F2A0
:1008120008DFF48029E493A3F85407240CC8C333F7
:10082200C4540F4420C8834004F456800146F6DFC6
:10083200E4800B0102040810204080900A66E47EE6
:10084200019360BCA3FF543F30E509541FFEE493BB
:10085200A360010ECF54C025E060A840B8E493A382
:10086200FAE493A3F8E493A3C8C582C8CAC583CAAD
:10087200F0A3C8C582C8CAC583CADFE9DEE780BE65
:010AA2000053
:1003EC0075F008758200EF2FFFEE33FECD33CDCCC8
:1003FC0033CCC58233C5829BED9AEC99E58298404B
:10040C000CF582EE9BFEED9AFDEC99FC0FD5F0D627
:10041C00E4CEFBE4CDFAE4CCF9A88222B800C1B951
:10042C000059BA002DEC8BF084CFCECDFCE5F0CB8F
:10043C00F97818EF2FFFEE33FEED33FDEC33FCEBC8
:10044C0033FB10D703994004EB99FB0FD8E5E4F983
:10045C00FA227818EF2FFFEE33FEED33FDEC33FC70
:10046C00C933C910D7059BE99A4007EC9BFCE99A64
:10047C00F90FD8E0E4C9FAE4CCFB2275F010EF2FA9
:10048C00FFEE33FEED33FDCC33CCC833C810D707A9
:10049C009BEC9AE899400AED9BFDEC9AFCE899F8E4
:0E04AC000FD5F0DAE4CDFBE4CCFAE4C8F92277
:100A2200C2D5E830E70FB2D5E4C39BFBE49AFAE4FF
:100A320099F9E498F8EC30E717B2D5120A58120483
:100A420028E4C39BFBE49AFAE499F9E498F880035A
:100A520012042830D50DE4C39FFFE49EFEE49DFD01
:040A6200E49CFC22F2
:0E04BA00C3E49FFFE49EFEE49DFDE49CFC2253
:1004C800EB9FF5F0EA9E42F0E99D42F0E89C45F08A
:0104D8002201
:0C04D900E6FC08E6FD08E6FE08E6FF224F
:0D04E500E6FB08E6F908E6FA08E6CBF82287
:0C04F200ECF608EDF608EEF608EFF62236
:1004FE00D083D082E493F608740193F608740293C5
:09050E00F608740393F6740473FB
:0C0B9B00EE30E707C3E49FFFE49EFE225B
:00000001FF
