:03000000020754A0
:0C075400787FE4F6D8FD7581B902079BA0
:100625002000062001030206B9300009300106C288
:1006350000C201804B300022C3E576941DE5756448
:1006450080948140067E017F2C8009E576240FFF8A
:10065500E43575FE8E758F76C200300123D3E576BD
:1006650094E3E5756480947E50067EFE7FD4800A0F
:10067500E57624F1FFE57534FFFE8E758F76C201B0
:10068500AF76AE75120B1A8E738F74AC73AD74E4BE
:100695001203327B8F7AC279F5783C12010E788E7F
:1006A5001204E1C3E5756480948050047FFF8002E5
:0906B5007F018F72D2A9D2AB22A1
:1007E000120B0E9000107480F0757500757696757A
:1007F0007300757496757201AC73AD74E4120332B4
:100800007B8F7AC279F5783C12010E788E1204E162
:100810007F007E007D407C40120B43755D13755C4C
:10082000D4755BF0755A3D7561F97560BE755FD81A
:10083000755E3D7F3C7EBF7D587C3E120A62120A87
:100840009F120B72120AEF120AFFD2BBD2B9D2A8C2
:05085000D2AAD2AF2284
:0B0B26001207E09000027411F080FE46
:1009C4000821010204081020408018293F065B4FCB
:1009D400666D7D077F6F777C395E7971000000005A
:0409E400000000000F
:100A9F00753940E4F53A753B76753C38753D3775D9
:090AAF003E3E753F7375405C2268
:1008C000EFC39400400AEFD3940950047429801EAA
:1008D000EFC39430400AEFD39439500474F9800E7A
:1008E000EFC39441400FEFD39446500974F22FF8B0
:1008F000E6F577802CEF24B4601524FC601B24E21D
:10090000601C24F9600E242D7014853B77801285BD
:100910003C77800D853E778008853F778003853D55
:0309200077AF7737
:0109230022B1
:100ACB00900000E53AF0A3EDF0900000E53AF0EF6E
:020ADB00F02207
:0806BE008F0B8E0A8D098C08D8
:1006C600E50C250DF50F120B1AEE3395E08F138E00
:1006D60012F511F510850C0EE50F14FFE50EC39FFC
:1006E600503AE47B0AFAF9F8AF13AE12AD11AC102A
:1006F600120980AF031208C07442250EF8A607AF90
:1007060013AE12AD11AC10E47B0AFAF9F8120980A7
:100716008F138E128D118C10050E80BCAC08EC3335
:100726005004AF398020AF13AE12AD11AC10EC4DB2
:100736004E4F6010E47B0AFAF9F8120980AF0312F3
:0D07460008C08002AF3A7442250EF8A607E5
:010753002283
:100A3E00900000E53AF0A3E541F02442F8E690007C
:100A4E0000F00541E541C3940840047F008002AFE9
:040A5E00418F412261
:0E09E800046200000000046600000000C1026E
:03000B0002085593
:10085500C0E0C0F0C083C082C0D075D000C000C069
:1008650001C002C003C004C005C006C007758A6880
:10087500758C68E5692401F569E43568F568E43542
:1008850067F567E43566F566E56524C8F565E4351D
:1008950064F564E43563F563E43562F562120A3E96
:1008A500D007D006D005D004D003D002D001D000A7
:0B08B500D0D0D082D083D0F0D0E03251
:100AEF00438902758A68758C68C28DD2A9D28C220F
:0F0AFF00438950E4F58BF58DC28FD2B5D28E228C
:090B3100AF69AE68AD67AC662245
:090B3A00AF65AE64AD63AC62224C
:100ADD00E47BE87A03F9F8AF65AE64AD63AC62020E
:020AED000428DB
:100AB8007B407A42790F7800AF65AE64AD63AC6273
:030AC800020428FD
:090B43008F1B8E1A8D198C1822EB
:100A0400AF8DEFFEAD8B7C00E42DFFEC3EFEE48F5A
:100A1400178E16F515F514AD15AC14EC12032DABA9
:100A24001BAA1AA919A81812010E8F1F8E1E8D1D3C
:090A34008C1CE4F58DF58BC28FDA
:010A3D002296
:090B4C00AF1FAE1EAD1DAC1C2252
:0609F600048A3F800000AE
:10050600E57445737003020608AB71AA70A96FA85B
:100516006E120019787E1204E178A61204D4C00087
:10052600787E1204C8D000120019788A1204D412F8
:10053600010E78AE1204E1787E1204C878861204A1
:10054600D412010E789E1204E1E4FFFEFD7C407891
:10055600A61204D412010EC004C005C006C0077856
:100566007E1204C8D003D002D001D0001200197840
:10057600AA1204D412001D78821204D412010E7835
:10058600961204E1789E1204C878AE1204D41200C2
:100596001D78961204D412001D78B61204E178B2C2
:1005A6001204C878B61204D412001D78B21204E1FF
:1005B600E4FFFEFDFC78B21204D41202B4500B78AC
:1005C600B21204ED00000000801CE4FFFE7DFE7CFC
:1005D6004278B21204D41202B4600B400978B21207
:1005E60004ED42FE0000E4FFFEFD7C3F78B21204FB
:1005F600D412001D12036BEF8572F0A42480F578E7
:100606008003757880900010E578F078A61204C80B
:0F06160078AA1204E1787E1204C878A60204E1E3
:0500060078B60204C8F9
:05000E0078B20204C8F5
:100A6200788A1204E1AF5DAE5CAD5BAC5A78861257
:0F0A720004E1AF61AE60AD5FAC5E78820204E17B
:050B6300788A0204E1A4
:050B6800789A0204E18F
:050B6D0078920204E192
:10092400788A1204E1AF51AE50AD4FAC4E789A12B2
:1009340004E1AF55AE54AD53AC5278921204E1E4E5
:10094400FFFEFDFC789A1204D41202B47006FFFE76
:10095400FDFC8011789A1204D4C000788A1204C86D
:10096400D00012021778861204E178921204C87833
:0C0974008A1204D412010E78820204E101
:0409FC00C100C10174
:03000300020B5598
:070B5500C2A9C2ABD20032BD
:03001300020B5C81
:070B5C00C2A9C2ABD20132B5
:050B7200D288D28A22A6
:0C0B0E009000037481F090001314F0229A
:030A000001790079
:100A8100C2AA0579E579C3940440047F008002AFCE
:0E0A9100798F79E579240F900002F0D2AA2225
:100016000203D7E86480F8E933E83360110460F03E
:10002600ED33EC337009E8FCE9FDEAFEEBFF220450
:1000360060DED3EB9FEA9EE99DE8C2E78CF0C2F74B
:1000460095F0400CE8CCF8E9CDF9EACEFAEBCFFB17
:100056001203A285D0F05804700320D5B3E80470CB
:10006600075002B2D50203E192D5EC0460F7E4CC66
:10007600C0E0C398F8603B94186008400DD0E0FBE0
:100086000203B9E4FBFAC9FC8028E830E406E4C9B7
:10009600FBE4CAFCE830E305E4C9CACBFCE8540734
:1000A6006010F8C3E913F9EA13FAEB13FBEC13FC3F
:1000B600D8F130F52FC3E49CFCEF9BFFEE9AFEEDE2
:1000C60099FDD0E0FBEF4E4D4C701222DB0302038C
:1000D600DEEC2CFCEF33FFEE33FEED33FDED30E7C7
:1000E600EB0203B9EF2BFFEE3AFEED39FDD0E0FB54
:1000F60050130BBB00030203E1ED13FDEE13FEEFFD
:0801060013FFEC13FC0203B926
:10010E00EC4D6011E8497017ED33EC3304600DE4EB
:10011E00FCFFFEFD22E933E8330470F80203D71228
:10012E0003A258046009E4CC248150062850090229
:10013E0003E12840030203DEC0E0EB4A7044B980BD
:10014E0006D0E0FB0203CDEF4E701CBD8008EBFF26
:10015E00EAFEE9FD80EBE98DF0A4FEE5F00201F781
:10016E00E9CDF9EAFEEBFFEF89F0A4FCE5F0CE89CC
:10017E00F0A42EFFE435F0CD89F0A42DFEE435F089
:10018E008067EF4E7005BD80D780C3EF8BF0A4ACB7
:10019E00F0EE8BF0A42CFCE435F0F8EF8AF0A42CF2
:1001AE00E5F038FCE433CB8DF0A42CFCE5F03BF805
:1001BE00EE8AF0A42CFCE5F038F8E433CF89F0A4F5
:1001CE002CFCE5F038CF3400CE89F0A42FFFE5F0FB
:1001DE003EFEE433C98DF0A42EFEE5F039CD8AF053
:1001EE00A42FFFE5F03EFEE43DFD33D0E0FB5007CB
:1001FE000BBB000F0203E1EC2CFCEF33FFEE33FEE2
:06020E00ED33FD0203B90F
:100214000203E1EC5D046005E8590470030203D7AE
:100224001203A2580460F6EC4860F2EC7004FDFE80
:10023400FF22C860DB2481C85009C39860025006BD
:100244000203DE9850CAF582E9294B4A7005AB8255
:100254000203CD75F0007C1A7880C3EF9BEE9AED13
:1002640099400DC3EF9BFFEE9AFEED99FDE842F035
:10027400DC23ACF0D0E0FFD0E0FED0E0FDAB822088
:10028400E7101BEB60BAEC2CFCEF33FFEE33FEED12
:1002940033FD0203B9E803F830E705C0F075F00058
:1002A400EF2FFFEE33FEED33FD40B830E7C280AAF6
:1002B40074F8CC6480CCC86480C8F58204604FC3F1
:1002C400EB9FF5F0EA9E42F0E99D42F0E89C45F090
:1002D400603C501DE5825FFFE582D313CB5BCBF41A
:1002E4002B5582FB50280ABA002409B90020088043
:1002F4001DE5825BFBE582D313CF5FCFF4C3132FDD
:100304005582FF50090EBE00050DBD00010CC3EB64
:100314009FF5F0EA9E42F0E99D42F0E89C45F060CA
:0903240007CC4820E701B3EC22EC
:10032D0075F020800E75F010800575F0087D007E4B
:10033D00007F003392D530D5031204BAEC33401050
:10034D00EF33FFEE33FEED33FDEC33FCD5F0ED2254
:0E035D00E5F0247EA2D513CC92E7CDCEFF2290
:10036B00EDD2E7CD33EC3392D524814006E4FFFE8A
:10037B00FDFC22FCE4CFCECDCC24E0501174FF80E9
:10038B00EDC3CC13CCCD13CDCE13CECF13CF047086
:07039B00F030D5DE0204BAC8
:1003A200E9D2E7C933E833F892D5EDD2E7CD33ECA1
:0703B20033FC5002B2D5221A
:1003B900EC30E7100FBF000C0EBE00080DBD0004A5
:1003C9000BEB6014A2D5EB13FCED92E7FD2274FF51
:1003D900FCFDFEFF22E480F8A2D574FF13FC7D80AA
:0303E900E480EFBE
:10076000020B26E493A3F8E493A34003F68001F27E
:1007700008DFF48029E493A3F85407240CC8C3339A
:10078000C4540F4420C8834004F456800146F6DF69
:10079000E4800B01020408102040809009C4E47E2C
:1007A000019360BCA3FF543F30E509541FFEE4935E
:1007B000A360010ECF54C025E060A840B8E493A325
:1007C000FAE493A3F8E493A3C8C582C8CAC583CA50
:1007D000F0A3C8C582C8CAC583CADFE9DEE780BE08
:010A030000F2
:1003EC0075F008758200EF2FFFEE33FECD33CDCCC8
:1003FC0033CCC58233C5829BED9AEC99E58298404B
:10040C000CF582EE9BFEED9AFDEC99FC0FD5F0D627
:10041C00E4CEFBE4CDFAE4CCF9A88222B800C1B951
:10042C000059BA002DEC8BF084CFCECDFCE5F0CB8F
:10043C00F97818EF2FFFEE33FEED33FDEC33FCEBC8
:10044C0033FB10D703994004EB99FB0FD8E5E4F983
:10045C00FA227818EF2FFFEE33FEED33FDEC33FC70
:10046C00C933C910D7059BE99A4007EC9BFCE99A64
:10047C00F90FD8E0E4C9FAE4CCFB2275F010EF2FA9
:10048C00FFEE33FEED33FDCC33CCC833C810D707A9
:10049C009BEC9AE899400AED9BFDEC9AFCE899F8E4
:0E04AC000FD5F0DAE4CDFBE4CCFAE4C8F92277
:10098000C2D5E830E70FB2D5E4C39BFBE49AFAE4A2
:1009900099F9E498F8EC30E717B2D51209B61204C9
:1009A00028E4C39BFBE49AFAE499F9E498F88003FD
:1009B00012042830D50DE4C39FFFE49EFEE49DFDA4
:0409C000E49CFC2295
:0E04BA00C3E49FFFE49EFEE49DFDE49CFC2253
:0C04C800E6FC08E6FD08E6FE08E6FF2260
:0D04D400E6FB08E6F908E6FA08E6CBF82298
:0C04E100ECF608EDF608EEF608EFF62247
:1004ED00D083D082E493F608740193F608740293D6
:0904FD00F608740393F67404730D
:0C0B1A00EE30E707C3E49FFFE49EFE22DC
:00000001FF
