:03000000020834BF
:0C083400787FE4F6D8FD7581A902087BEE
:10067100200006200103020705300009300106C2EF
:1006810000C201804B300022C3E51D941DE51C64AE
:1006910080948140067E017F2C8009E51D240FFF97
:1006A100E4351CFE8E1C8F1DC200300123D3E51DD5
:1006B10094E3E51C6480947E50067EFE7FD4800A1C
:1006C100E51D24F1FFE51C34FFFE8E1C8F1DC201C8
:1006D100AF1DAE1C120BCD8E1A8F1BAC1AAD1BE4D5
:1006E1001203327B8F7AC279F5783C12010E787E43
:1006F1001204F2C3E51C6480948050047FFF8002E1
:090701007F018F19D2A9D2AB22AD
:1008C000751C00751D96751A00751B96751901AC7F
:1008D0001AAD1BE41203327B8F7AC279F5783C1291
:1008E000010E787E1204F27F007E007D407C401273
:1008F0000BEB750F13750ED4750DF0750C3C75135D
:10090000737512BE7511D875103C7F7F7EBF7D5800
:100910007C3D120B41120B60120C1A120BAE120B23
:0C092000BED2BBD2B9D2A8D2AAD2AF225C
:1007A00075A0801208C0120671120B8CC3EF951849
:1007B000FFEE9517FEED9516FDEC9515FCE47B4FCD
:1007C000FAF9F8D31204C850DD120B8C8F188E176B
:1007D0008D168C15120AE2120BF48F0F8E0E8D0DF2
:1007E0008C0CAC1AAD1BE4120332120517AE1CAF11
:1007F0001DEE3395E0FDFC750C04750D0412070A1F
:10080000120BF4C004C005C006C007AC19EC1203FB
:1008100037D003D002D001D00012010EE4FBFAF968
:10082000783F12001D12036BE4F50C750D041207DE
:040830000A0207A60B
:100A57000842FFFFFFFFFFFFFFFF08210102040815
:100A6700102040801829C0F9A4B0999282F880908C
:0E0A77008883C6A1868E0000000000000000EB
:100B60007539BF753AFF753B76753C38753D3775FD
:090B70003E3E753F7375405C22A6
:10099700EFC39400400AEFD3940950047429801ED2
:1009A700EFC39430400AEFD39439500474F9800EA2
:1009B700EFC39441400FEFD39446500974F22FF8D8
:1009C700E6F514802CEF24B4601524FC601B24E2A8
:1009D700601C24F9600E242D7014853B1480128549
:1009E7003C14800D853E148008853F148003853DA7
:0309F70014AF1426
:0109FA0022DA
:100B9E00853A8074212DF8E6F5907580FF8F8022BE
:08070A008F0B8E0A8D098C088B
:10071200E50C250DF50F120BCDEE3395E08F138E00
:1007220012F511F510850C0EE50F14FFE50EC39FAF
:10073200503AE47B0AFAF9F8AF13AE12AD11AC10DD
:10074200120A9EAF031209977442250EF8A607AF4C
:1007520013AE12AD11AC10E47B0AFAF9F8120A9E3C
:100762008F138E128D118C10050E80BCAC08EC33E9
:100772005004AF398020AF13AE12AD11AC10EC4D66
:100782004E4F6010E47B0AFAF9F8120A9EAF031288
:0D07920009978002AF3A7442250EF8A607C1
:01079F002237
:100B1C00853A8074212541F8E6F59074422541F818
:100B2C00E6F5800541E541C3940840047F0080024E
:050B3C00AF418F4122D2
:0E0A8500046200000000046600000000C102D0
:03000B0002092CBB
:10092C00C0E0C0F0C083C082C0D075D000C000C091
:10093C0001C002C003C004C005C006C007758A68A8
:10094C00758C68E5692401F569E43568F568E4356A
:10095C0067F567E43566F566E56524C8F565E43545
:10096C0064F564E43563F563E43562F562120B1CDF
:10097C00D007D006D005D004D003D002D001D000CF
:0B098C00D0D0D082D083D0F0D0E03279
:100BAE00438902758A68758C68C28DD2A9D28C224F
:0F0BBE00438950E4F58BF58DC28FD2B5D28E22CC
:090BD900AF69AE68AD67AC66229D
:090BE200AF65AE64AD63AC6222A4
:100B8C00E47BE87A03F9F8AF65AE64AD63AC62025E
:020B9C0004282B
:100B79007B407A42790F7800AF65AE64AD63AC62B1
:030B89000204283B
:090BEB008F518E508D4F8C4E226B
:100AE200AF8DEFFEAD8B7C00E42DFFEC3EFEE48F7C
:100AF2004D8E4CF54BF54AAD4BAC4AEC12032DAB87
:100B020051AA50A94FA84E12010E8F558E548D53E3
:090B12008C52E4F58DF58BC28FC5
:010B1B0022B7
:090BF400AF55AE54AD53AC5222D2
:060A9300047A3F80000020
:10051700E51B451A7003020657AB0FAA0EA90DA8D3
:100527000C120019786E1204F278961204E5C000D6
:10053700786E1204D9D000120019787A1204E512E5
:10054700010E789E1204F2786E1204D9787612049E
:10055700E512010E788E1204F2E4FFFEFD7C40786E
:10056700961204E512010EC004C005C006C0077844
:100577006E1204D9D003D002D001D000120019782E
:100587009A1204E512001D78721204E512010E7822
:10059700861204F2788E1204D9789E1204E51200AE
:1005A7001D78861204E512001D78A61204F278A2BF
:1005B7001204D9C004C005C006C007786E1204D95A
:1005C70012036B120BCDAC06AD07EC120332787E2B
:1005D7001204E51202B460094007E4FBFAF9F88057
:1005E7000D78A61204D9AB07AA06A905A804D00757
:1005F700D006D005D00412001D78A21204F2E4FF41
:10060700FEFDFC78A21204E51202B4500B78A21288
:1006170004FE00000000801CE4FFFE7DFE7C4278A3
:10062700A21204E51202B4600B400978A21204FE7C
:1006370042FE0000E4FFFEFD7C3F78A21204E512B3
:10064700001D12036BEF8519F0A42480F51E8003AB
:10065700751E80851EA078961204D9789A1204F226
:0A066700786E1204D978960204F2AE
:0500060078A60204D9F8
:05000E0078A20204D9F4
:100B4100787A1204F2AF0FAE0EAD0DAC0C787612BE
:0F0B510004F2AF13AE12AD11AC1078720204F2C1
:050C0B00787A0204F2FA
:050C1000788A0204F2E5
:050C150078820204F2E8
:1009FB00787A1204F2AF5DAE5CAD5BAC5A788A12BA
:100A0B0004F2AF61AE60AD5FAC5E78821204F2E4CB
:100A1B00FFFEFDFC788A1204E51202B47006FFFE9D
:100A2B00FDFC8011788A1204E5C000787A1204D993
:100A3B00D00012021778761204F278821204D97859
:0C0A4B007A1204E512010E78720204F227
:040A9900C100C101D6
:03000300020BFDF0
:070BFD00C2A9C2ABD2003215
:03001300020C04D8
:070C0400C2A9C2ABD201320C
:050C1A00D288D28A22FD
:100016000203D7E86480F8E933E83360110460F03E
:10002600ED33EC337009E8FCE9FDEAFEEBFF220450
:1000360060DED3EB9FEA9EE99DE8C2E78CF0C2F74B
:1000460095F0400CE8CCF8E9CDF9EACEFAEBCFFB17
:100056001203A285D0F05804700320D5B3E80470CB
:10006600075002B2D50203E192D5EC0460F7E4CC66
:10007600C0E0C398F8603B94186008400DD0E0FBE0
:100086000203B9E4FBFAC9FC8028E830E406E4C9B7
:10009600FBE4CAFCE830E305E4C9CACBFCE8540734
:1000A6006010F8C3E913F9EA13FAEB13FBEC13FC3F
:1000B600D8F130F52FC3E49CFCEF9BFFEE9AFEEDE2
:1000C60099FDD0E0FBEF4E4D4C701222DB0302038C
:1000D600DEEC2CFCEF33FFEE33FEED33FDED30E7C7
:1000E600EB0203B9EF2BFFEE3AFEED39FDD0E0FB54
:1000F60050130BBB00030203E1ED13FDEE13FEEFFD
:0801060013FFEC13FC0203B926
:10010E00EC4D6011E8497017ED33EC3304600DE4EB
:10011E00FCFFFEFD22E933E8330470F80203D71228
:10012E0003A258046009E4CC248150062850090229
:10013E0003E12840030203DEC0E0EB4A7044B980BD
:10014E0006D0E0FB0203CDEF4E701CBD8008EBFF26
:10015E00EAFEE9FD80EBE98DF0A4FEE5F00201F781
:10016E00E9CDF9EAFEEBFFEF89F0A4FCE5F0CE89CC
:10017E00F0A42EFFE435F0CD89F0A42DFEE435F089
:10018E008067EF4E7005BD80D780C3EF8BF0A4ACB7
:10019E00F0EE8BF0A42CFCE435F0F8EF8AF0A42CF2
:1001AE00E5F038FCE433CB8DF0A42CFCE5F03BF805
:1001BE00EE8AF0A42CFCE5F038F8E433CF89F0A4F5
:1001CE002CFCE5F038CF3400CE89F0A42FFFE5F0FB
:1001DE003EFEE433C98DF0A42EFEE5F039CD8AF053
:1001EE00A42FFFE5F03EFEE43DFD33D0E0FB5007CB
:1001FE000BBB000F0203E1EC2CFCEF33FFEE33FEE2
:06020E00ED33FD0203B90F
:100214000203E1EC5D046005E8590470030203D7AE
:100224001203A2580460F6EC4860F2EC7004FDFE80
:10023400FF22C860DB2481C85009C39860025006BD
:100244000203DE9850CAF582E9294B4A7005AB8255
:100254000203CD75F0007C1A7880C3EF9BEE9AED13
:1002640099400DC3EF9BFFEE9AFEED99FDE842F035
:10027400DC23ACF0D0E0FFD0E0FED0E0FDAB822088
:10028400E7101BEB60BAEC2CFCEF33FFEE33FEED12
:1002940033FD0203B9E803F830E705C0F075F00058
:1002A400EF2FFFEE33FEED33FD40B830E7C280AAF6
:1002B40074F8CC6480CCC86480C8F58204604FC3F1
:1002C400EB9FF5F0EA9E42F0E99D42F0E89C45F090
:1002D400603C501DE5825FFFE582D313CB5BCBF41A
:1002E4002B5582FB50280ABA002409B90020088043
:1002F4001DE5825BFBE582D313CF5FCFF4C3132FDD
:100304005582FF50090EBE00050DBD00010CC3EB64
:100314009FF5F0EA9E42F0E99D42F0E89C45F060CA
:0903240007CC4820E701B3EC22EC
:10032D0075F020800E75F010800575F0087D007E4B
:10033D00007F003392D530D5031204BAEC33401050
:10034D00EF33FFEE33FEED33FDEC33FCD5F0ED2254
:0E035D00E5F0247EA2D513CC92E7CDCEFF2290
:10036B00EDD2E7CD33EC3392D524814006E4FFFE8A
:10037B00FDFC22FCE4CFCECDCC24E0501174FF80E9
:10038B00EDC3CC13CCCD13CDCE13CECF13CF047086
:07039B00F030D5DE0204BAC8
:1003A200E9D2E7C933E833F892D5EDD2E7CD33ECA1
:0703B20033FC5002B2D5221A
:1003B900EC30E7100FBF000C0EBE00080DBD0004A5
:1003C9000BEB6014A2D5EB13FCED92E7FD2274FF51
:1003D900FCFDFEFF22E480F8A2D574FF13FC7D80AA
:0303E900E480EFBE
:100840000207A0E493A3F8E493A34003F68001F227
:1008500008DFF48029E493A3F85407240CC8C333B9
:10086000C4540F4420C8834004F456800146F6DF88
:10087000E4800B0102040810204080900A57E47EB7
:10088000019360BCA3FF543F30E509541FFEE4937D
:10089000A360010ECF54C025E060A840B8E493A344
:1008A000FAE493A3F8E493A3C8C582C8CAC583CA6F
:1008B000F0A3C8C582C8CAC583CADFE9DEE780BE27
:010A9D000058
:1003EC0075F008758200EF2FFFEE33FECD33CDCCC8
:1003FC0033CCC58233C5829BED9AEC99E58298404B
:10040C000CF582EE9BFEED9AFDEC99FC0FD5F0D627
:10041C00E4CEFBE4CDFAE4CCF9A88222B800C1B951
:10042C000059BA002DEC8BF084CFCECDFCE5F0CB8F
:10043C00F97818EF2FFFEE33FEED33FDEC33FCEBC8
:10044C0033FB10D703994004EB99FB0FD8E5E4F983
:10045C00FA227818EF2FFFEE33FEED33FDEC33FC70
:10046C00C933C910D7059BE99A4007EC9BFCE99A64
:10047C00F90FD8E0E4C9FAE4CCFB2275F010EF2FA9
:10048C00FFEE33FEED33FDCC33CCC833C810D707A9
:10049C009BEC9AE899400AED9BFDEC9AFCE899F8E4
:0E04AC000FD5F0DAE4CDFBE4CCFAE4C8F92277
:100A9E00C2D5E830E70FB2D5E4C39BFBE49AFAE483
:100AAE0099F9E498F8EC30E717B2D5120AD412048B
:100ABE0028E4C39BFBE49AFAE499F9E498F88003DE
:100ACE0012042830D50DE4C39FFFE49EFEE49DFD85
:040ADE00E49CFC2276
:0E04BA00C3E49FFFE49EFEE49DFDE49CFC2253
:1004C800EB9FF5F0EA9E42F0E99D42F0E89C45F08A
:0104D8002201
:0C04D900E6FC08E6FD08E6FE08E6FF224F
:0D04E500E6FB08E6F908E6FA08E6CBF82287
:0C04F200ECF608EDF608EEF608EFF62236
:1004FE00D083D082E493F608740193F608740293C5
:09050E00F608740393F6740473FB
:0C0BCD00EE30E707C3E49FFFE49EFE2229
:00000001FF
